{
  "_format": "hh-sol-artifact-1",
  "contractName": "OlaPrimeiroContrato",
  "sourceName": "contracts/OlaPrimeiroContrato.sol",
  "abi": [
    {
      "inputs": [],
      "stateMutability": "nonpayable",
      "type": "constructor"
    },
    {
      "anonymous": false,
      "inputs": [
        {
          "indexed": true,
          "internalType": "address",
          "name": "autor",
          "type": "address"
        },
        {
          "indexed": false,
          "internalType": "uint256",
          "name": "novoValor",
          "type": "uint256"
        },
        {
          "indexed": false,
          "internalType": "uint256",
          "name": "momento",
          "type": "uint256"
        }
      ],
      "name": "NumeroAlterado",
      "type": "event"
    },
    {
      "anonymous": false,
      "inputs": [
        {
          "indexed": true,
          "internalType": "address",
          "name": "remetente",
          "type": "address"
        },
        {
          "indexed": false,
          "internalType": "uint256",
          "name": "valor",
          "type": "uint256"
        },
        {
          "indexed": false,
          "internalType": "bytes",
          "name": "dados",
          "type": "bytes"
        }
      ],
      "name": "Recebido",
      "type": "event"
    },
    {
      "anonymous": false,
      "inputs": [
        {
          "indexed": true,
          "internalType": "address",
          "name": "destinatario",
          "type": "address"
        },
        {
          "indexed": false,
          "internalType": "uint256",
          "name": "valor",
          "type": "uint256"
        },
        {
          "indexed": false,
          "internalType": "uint256",
          "name": "momento",
          "type": "uint256"
        }
      ],
      "name": "SaqueRealizado",
      "type": "event"
    },
    {
      "stateMutability": "payable",
      "type": "fallback"
    },
    {
      "inputs": [
        {
          "internalType": "uint256",
          "name": "_novoNumero",
          "type": "uint256"
        }
      ],
      "name": "definirNumero",
      "outputs": [],
      "stateMutability": "nonpayable",
      "type": "function"
    },
    {
      "inputs": [],
      "name": "dono",
      "outputs": [
        {
          "internalType": "address",
          "name": "",
          "type": "address"
        }
      ],
      "stateMutability": "view",
      "type": "function"
    },
    {
      "inputs": [],
      "name": "lerNumero",
      "outputs": [
        {
          "internalType": "uint256",
          "name": "",
          "type": "uint256"
        }
      ],
      "stateMutability": "view",
      "type": "function"
    },
    {
      "inputs": [],
      "name": "saldoContrato",
      "outputs": [
        {
          "internalType": "uint256",
          "name": "",
          "type": "uint256"
        }
      ],
      "stateMutability": "view",
      "type": "function"
    },
    {
      "inputs": [
        {
          "internalType": "uint256",
          "name": "valor",
          "type": "uint256"
        }
      ],
      "name": "somarNumero",
      "outputs": [],
      "stateMutability": "nonpayable",
      "type": "function"
    },
    {
      "inputs": [],
      "name": "ultimaAlteracao",
      "outputs": [
        {
          "internalType": "uint256",
          "name": "",
          "type": "uint256"
        }
      ],
      "stateMutability": "view",
      "type": "function"
    },
    {
      "inputs": [],
      "name": "withdraw",
      "outputs": [],
      "stateMutability": "nonpayable",
      "type": "function"
    },
    {
      "stateMutability": "payable",
      "type": "receive"
    }
  ],
  "bytecode": "0x60a060405234801561001057600080fd5b503360805242600155608051610609610057600039600081816101c101528181610206015281816102a60152818161038e0152818161041401526104ea01526106096000f3fe6080604052600436106100745760003560e01c806351e44bc11161004e57806351e44bc11461016257806358a52cf41461018657806359f78f161461019c57806370514bea146101af576100cd565b80631b2778961461010b5780632ad5af5b1461012d5780633ccfd60b1461014d576100cd565b366100cd57336001600160a01b03167f3bfd47b2441a91e9d8d525a2ab0c725142bf4fdbcd202ca1276e807959f0cbe2346040516100c391815260406020820181905260009082015260600190565b60405180910390a2005b336001600160a01b03167f3bfd47b2441a91e9d8d525a2ab0c725142bf4fdbcd202ca1276e807959f0cbe2346000366040516100c39392919061053a565b34801561011757600080fd5b5061012b610126366004610570565b6101fb565b005b34801561013957600080fd5b5061012b610148366004610570565b61029b565b34801561015957600080fd5b5061012b610383565b34801561016e57600080fd5b506000545b6040519081526020015b60405180910390f35b34801561019257600080fd5b5061017360015481565b3480156101a857600080fd5b5047610173565b3480156101bb57600080fd5b506101e37f000000000000000000000000000000000000000000000000000000000000000081565b6040516001600160a01b03909116815260200161017d565b336001600160a01b037f0000000000000000000000000000000000000000000000000000000000000000161461024c5760405162461bcd60e51b815260040161024390610589565b60405180910390fd5b600081905542600181905560405133917fca25c61e4317f67f9aa23ffdca0c51200a979cc237db1a8ef795557e541e9dab9161029091858252602082015260400190565b60405180910390a250565b336001600160a01b037f000000000000000000000000000000000000000000000000000000000000000016146102e35760405162461bcd60e51b815260040161024390610589565b6000811161032b5760405162461bcd60e51b8152602060048201526015602482015274056616c6f72207072656369736120736572203e203605c1b6044820152606401610243565b8060008082825461033c91906105ac565b909155505042600181905560005460408051918252602082019290925233917fca25c61e4317f67f9aa23ffdca0c51200a979cc237db1a8ef795557e541e9dab9101610290565b336001600160a01b037f000000000000000000000000000000000000000000000000000000000000000016146103cb5760405162461bcd60e51b815260040161024390610589565b47806104105760405162461bcd60e51b815260206004820152601460248201527314d95b481cd85b191bc8191a5cdc1bdb9a5d995b60621b6044820152606401610243565b60007f00000000000000000000000000000000000000000000000000000000000000006001600160a01b03168260405160006040518083038185875af1925050503d806000811461047d576040519150601f19603f3d011682016040523d82523d6000602084013e610482565b606091505b50509050806104d35760405162461bcd60e51b815260206004820152601760248201527f46616c6861206e6f20656e76696f2064652045746865720000000000000000006044820152606401610243565b604080518381524260208201526001600160a01b037f000000000000000000000000000000000000000000000000000000000000000016917fbf13b9d6c1d3e9da5dc1bf5d3153ccbc8acb636225e4b56e243259308da99068910160405180910390a25050565b83815260406020820152816040820152818360608301376000818301606090810191909152601f909201601f1916010192915050565b60006020828403121561058257600080fd5b5035919050565b6020808252600990820152682737ba1037bbb732b960b91b604082015260600190565b808201808211156105cd57634e487b7160e01b600052601160045260246000fd5b9291505056fea2646970667358221220efe2c6cdb339a5ef7f9f1fa301a0106f46ff368daf1b8bfe166f7c6341c0d85d64736f6c63430008110033",
  "linkReferences": {},
  "deployedLinkReferences": {}
}