{"contracts/OlaPrimeiroContrato.sol":{"OlaPrimeiroContrato":{"abi":[{"inputs":[],"stateMutability":"nonpayable","type":"constructor"},{"anonymous":false,"inputs":[{"indexed":true,"internalType":"address","name":"autor","type":"address"},{"indexed":false,"internalType":"uint256","name":"novoValor","type":"uint256"},{"indexed":false,"internalType":"uint256","name":"momento","type":"uint256"}],"name":"NumeroAlterado","type":"event"},{"anonymous":false,"inputs":[{"indexed":true,"internalType":"address","name":"remetente","type":"address"},{"indexed":false,"internalType":"uint256","name":"valor","type":"uint256"},{"indexed":false,"internalType":"bytes","name":"dados","type":"bytes"}],"name":"Recebido","type":"event"},{"anonymous":false,"inputs":[{"indexed":true,"internalType":"address","name":"destinatario","type":"address"},{"indexed":false,"internalType":"uint256","name":"valor","type":"uint256"},{"indexed":false,"internalType":"uint256","name":"momento","type":"uint256"}],"name":"SaqueRealizado","type":"event"},{"stateMutability":"payable","type":"fallback"},{"inputs":[{"internalType":"uint256","name":"_novoNumero","type":"uint256"}],"name":"definirNumero","outputs":[],"stateMutability":"nonpayable","type":"function"},{"inputs":[],"name":"dono","outputs":[{"internalType":"address","name":"","type":"address"}],"stateMutability":"view","type":"function"},{"inputs":[],"name":"lerNumero","outputs":[{"internalType":"uint256","name":"","type":"uint256"}],"stateMutability":"view","type":"function"},{"inputs":[],"name":"saldoContrato","outputs":[{"internalType":"uint256","name":"","type":"uint256"}],"stateMutability":"view","type":"function"},{"inputs":[{"internalType":"uint256","name":"valor","type":"uint256"}],"name":"somarNumero","outputs":[],"stateMutability":"nonpayable","type":"function"},{"inputs":[],"name":"ultimaAlteracao","outputs":[{"internalType":"uint256","name":"","type":"uint256"}],"stateMutability":"view","type":"function"},{"inputs":[],"name":"withdraw","outputs":[],"stateMutability":"nonpayable","type":"function"},{"stateMutability":"payable","type":"receive"}],"evm":{"bytecode":{"linkReferences":{},"object":"60a060405234801561001057600080fd5b503360805242600155608051610609610057600039600081816101c101528181610206015281816102a60152818161038e0152818161041401526104ea01526106096000f3fe6080604052600436106100745760003560e01c806351e44bc11161004e57806351e44bc11461016257806358a52cf41461018657806359f78f161461019c57806370514bea146101af576100cd565b80631b2778961461010b5780632ad5af5b1461012d5780633ccfd60b1461014d576100cd565b366100cd57336001600160a01b03167f3bfd47b2441a91e9d8d525a2ab0c725142bf4fdbcd202ca1276e807959f0cbe2346040516100c391815260406020820181905260009082015260600190565b60405180910390a2005b336001600160a01b03167f3bfd47b2441a91e9d8d525a2ab0c725142bf4fdbcd202ca1276e807959f0cbe2346000366040516100c39392919061053a565b34801561011757600080fd5b5061012b610126366004610570565b6101fb565b005b34801561013957600080fd5b5061012b610148366004610570565b61029b565b34801561015957600080fd5b5061012b610383565b34801561016e57600080fd5b506000545b6040519081526020015b60405180910390f35b34801561019257600080fd5b5061017360015481565b3480156101a857600080fd5b5047610173565b3480156101bb57600080fd5b506101e37f000000000000000000000000000000000000000000000000000000000000000081565b6040516001600160a01b03909116815260200161017d565b336001600160a01b037f0000000000000000000000000000000000000000000000000000000000000000161461024c5760405162461bcd60e51b815260040161024390610589565b60405180910390fd5b600081905542600181905560405133917fca25c61e4317f67f9aa23ffdca0c51200a979cc237db1a8ef795557e541e9dab9161029091858252602082015260400190565b60405180910390a250565b336001600160a01b037f000000000000000000000000000000000000000000000000000000000000000016146102e35760405162461bcd60e51b815260040161024390610589565b6000811161032b5760405162461bcd60e51b8152602060048201526015602482015274056616c6f72207072656369736120736572203e203605c1b6044820152606401610243565b8060008082825461033c91906105ac565b909155505042600181905560005460408051918252602082019290925233917fca25c61e4317f67f9aa23ffdca0c51200a979cc237db1a8ef795557e541e9dab9101610290565b336001600160a01b037f000000000000000000000000000000000000000000000000000000000000000016146103cb5760405162461bcd60e51b815260040161024390610589565b47806104105760405162461bcd60e51b815260206004820152601460248201527314d95b481cd85b191bc8191a5cdc1bdb9a5d995b60621b6044820152606401610243565b60007f00000000000000000000000000000000000000000000000000000000000000006001600160a01b03168260405160006040518083038185875af1925050503d806000811461047d576040519150601f19603f3d011682016040523d82523d6000602084013e610482565b606091505b50509050806104d35760405162461bcd60e51b815260206004820152601760248201527f46616c6861206e6f20656e76696f2064652045746865720000000000000000006044820152606401610243565b604080518381524260208201526001600160a01b037f000000000000000000000000000000000000000000000000000000000000000016917fbf13b9d6c1d3e9da5dc1bf5d3153ccbc8acb636225e4b56e243259308da99068910160405180910390a25050565b83815260406020820152816040820152818360608301376000818301606090810191909152601f909201601f1916010192915050565b60006020828403121561058257600080fd5b5035919050565b6020808252600990820152682737ba1037bbb732b960b91b604082015260600190565b808201808211156105cd57634e487b7160e01b600052601160045260246000fd5b9291505056fea2646970667358221220efe2c6cdb339a5ef7f9f1fa301a0106f46ff368daf1b8bfe166f7c6341c0d85d64736f6c63430008110033","opcodes":"PUSH1 0xA0 PUSH1 0x40 MSTORE CALLVALUE DUP1 ISZERO PUSH2 0x10 JUMPI PUSH1 0x0 DUP1 REVERT JUMPDEST POP CALLER PUSH1 0x80 MSTORE TIMESTAMP PUSH1 0x1 SSTORE PUSH1 0x80 MLOAD PUSH2 0x609 PUSH2 0x57 PUSH1 0x0 CODECOPY PUSH1 0x0 DUP2 DUP2 PUSH2 0x1C1 ADD MSTORE DUP2 DUP2 PUSH2 0x206 ADD MSTORE DUP2 DUP2 PUSH2 0x2A6 ADD MSTORE DUP2 DUP2 PUSH2 0x38E ADD MSTORE DUP2 DUP2 PUSH2 0x414 ADD MSTORE PUSH2 0x4EA ADD MSTORE PUSH2 0x609 PUSH1 0x0 RETURN INVALID PUSH1 0x80 PUSH1 0x40 MSTORE PUSH1 0x4 CALLDATASIZE LT PUSH2 0x74 JUMPI PUSH1 0x0 CALLDATALOAD PUSH1 0xE0 SHR DUP1 PUSH4 0x51E44BC1 GT PUSH2 0x4E JUMPI DUP1 PUSH4 0x51E44BC1 EQ PUSH2 0x162 JUMPI DUP1 PUSH4 0x58A52CF4 EQ PUSH2 0x186 JUMPI DUP1 PUSH4 0x59F78F16 EQ PUSH2 0x19C JUMPI DUP1 PUSH4 0x70514BEA EQ PUSH2 0x1AF JUMPI PUSH2 0xCD JUMP JUMPDEST DUP1 PUSH4 0x1B277896 EQ PUSH2 0x10B JUMPI DUP1 PUSH4 0x2AD5AF5B EQ PUSH2 0x12D JUMPI DUP1 PUSH4 0x3CCFD60B EQ PUSH2 0x14D JUMPI PUSH2 0xCD JUMP JUMPDEST CALLDATASIZE PUSH2 0xCD JUMPI CALLER PUSH1 0x1 PUSH1 0x1 PUSH1 0xA0 SHL SUB AND PUSH32 0x3BFD47B2441A91E9D8D525A2AB0C725142BF4FDBCD202CA1276E807959F0CBE2 CALLVALUE PUSH1 0x40 MLOAD PUSH2 0xC3 SWAP2 DUP2 MSTORE PUSH1 0x40 PUSH1 0x20 DUP3 ADD DUP2 SWAP1 MSTORE PUSH1 0x0 SWAP1 DUP3 ADD MSTORE PUSH1 0x60 ADD SWAP1 JUMP JUMPDEST PUSH1 0x40 MLOAD DUP1 SWAP2 SUB SWAP1 LOG2 STOP JUMPDEST CALLER PUSH1 0x1 PUSH1 0x1 PUSH1 0xA0 SHL SUB AND PUSH32 0x3BFD47B2441A91E9D8D525A2AB0C725142BF4FDBCD202CA1276E807959F0CBE2 CALLVALUE PUSH1 0x0 CALLDATASIZE PUSH1 0x40 MLOAD PUSH2 0xC3 SWAP4 SWAP3 SWAP2 SWAP1 PUSH2 0x53A JUMP JUMPDEST CALLVALUE DUP1 ISZERO PUSH2 0x117 JUMPI PUSH1 0x0 DUP1 REVERT JUMPDEST POP PUSH2 0x12B PUSH2 0x126 CALLDATASIZE PUSH1 0x4 PUSH2 0x570 JUMP JUMPDEST PUSH2 0x1FB JUMP JUMPDEST STOP JUMPDEST CALLVALUE DUP1 ISZERO PUSH2 0x139 JUMPI PUSH1 0x0 DUP1 REVERT JUMPDEST POP PUSH2 0x12B PUSH2 0x148 CALLDATASIZE PUSH1 0x4 PUSH2 0x570 JUMP JUMPDEST PUSH2 0x29B JUMP JUMPDEST CALLVALUE DUP1 ISZERO PUSH2 0x159 JUMPI PUSH1 0x0 DUP1 REVERT JUMPDEST POP PUSH2 0x12B PUSH2 0x383 JUMP JUMPDEST CALLVALUE DUP1 ISZERO PUSH2 0x16E JUMPI PUSH1 0x0 DUP1 REVERT JUMPDEST POP PUSH1 0x0 SLOAD JUMPDEST PUSH1 0x40 MLOAD SWAP1 DUP2 MSTORE PUSH1 0x20 ADD JUMPDEST PUSH1 0x40 MLOAD DUP1 SWAP2 SUB SWAP1 RETURN JUMPDEST CALLVALUE DUP1 ISZERO PUSH2 0x192 JUMPI PUSH1 0x0 DUP1 REVERT JUMPDEST POP PUSH2 0x173 PUSH1 0x1 SLOAD DUP2 JUMP JUMPDEST CALLVALUE DUP1 ISZERO PUSH2 0x1A8 JUMPI PUSH1 0x0 DUP1 REVERT JUMPDEST POP SELFBALANCE PUSH2 0x173 JUMP JUMPDEST CALLVALUE DUP1 ISZERO PUSH2 0x1BB JUMPI PUSH1 0x0 DUP1 REVERT JUMPDEST POP PUSH2 0x1E3 PUSH32 0x0 DUP2 JUMP JUMPDEST PUSH1 0x40 MLOAD PUSH1 0x1 PUSH1 0x1 PUSH1 0xA0 SHL SUB SWAP1 SWAP2 AND DUP2 MSTORE PUSH1 0x20 ADD PUSH2 0x17D JUMP JUMPDEST CALLER PUSH1 0x1 PUSH1 0x1 PUSH1 0xA0 SHL SUB PUSH32 0x0 AND EQ PUSH2 0x24C JUMPI PUSH1 0x40 MLOAD PUSH3 0x461BCD PUSH1 0xE5 SHL DUP2 MSTORE PUSH1 0x4 ADD PUSH2 0x243 SWAP1 PUSH2 0x589 JUMP JUMPDEST PUSH1 0x40 MLOAD DUP1 SWAP2 SUB SWAP1 REVERT JUMPDEST PUSH1 0x0 DUP2 SWAP1 SSTORE TIMESTAMP PUSH1 0x1 DUP2 SWAP1 SSTORE PUSH1 0x40 MLOAD CALLER SWAP2 PUSH32 0xCA25C61E4317F67F9AA23FFDCA0C51200A979CC237DB1A8EF795557E541E9DAB SWAP2 PUSH2 0x290 SWAP2 DUP6 DUP3 MSTORE PUSH1 0x20 DUP3 ADD MSTORE PUSH1 0x40 ADD SWAP1 JUMP JUMPDEST PUSH1 0x40 MLOAD DUP1 SWAP2 SUB SWAP1 LOG2 POP JUMP JUMPDEST CALLER PUSH1 0x1 PUSH1 0x1 PUSH1 0xA0 SHL SUB PUSH32 0x0 AND EQ PUSH2 0x2E3 JUMPI PUSH1 0x40 MLOAD PUSH3 0x461BCD PUSH1 0xE5 SHL DUP2 MSTORE PUSH1 0x4 ADD PUSH2 0x243 SWAP1 PUSH2 0x589 JUMP JUMPDEST PUSH1 0x0 DUP2 GT PUSH2 0x32B JUMPI PUSH1 0x40 MLOAD PUSH3 0x461BCD PUSH1 0xE5 SHL DUP2 MSTORE PUSH1 0x20 PUSH1 0x4 DUP3 ADD MSTORE PUSH1 0x15 PUSH1 0x24 DUP3 ADD MSTORE PUSH21 0x56616C6F72207072656369736120736572203E203 PUSH1 0x5C SHL PUSH1 0x44 DUP3 ADD MSTORE PUSH1 0x64 ADD PUSH2 0x243 JUMP JUMPDEST DUP1 PUSH1 0x0 DUP1 DUP3 DUP3 SLOAD PUSH2 0x33C SWAP2 SWAP1 PUSH2 0x5AC JUMP JUMPDEST SWAP1 SWAP2 SSTORE POP POP TIMESTAMP PUSH1 0x1 DUP2 SWAP1 SSTORE PUSH1 0x0 SLOAD PUSH1 0x40 DUP1 MLOAD SWAP2 DUP3 MSTORE PUSH1 0x20 DUP3 ADD SWAP3 SWAP1 SWAP3 MSTORE CALLER SWAP2 PUSH32 0xCA25C61E4317F67F9AA23FFDCA0C51200A979CC237DB1A8EF795557E541E9DAB SWAP2 ADD PUSH2 0x290 JUMP JUMPDEST CALLER PUSH1 0x1 PUSH1 0x1 PUSH1 0xA0 SHL SUB PUSH32 0x0 AND EQ PUSH2 0x3CB JUMPI PUSH1 0x40 MLOAD PUSH3 0x461BCD PUSH1 0xE5 SHL DUP2 MSTORE PUSH1 0x4 ADD PUSH2 0x243 SWAP1 PUSH2 0x589 JUMP JUMPDEST SELFBALANCE DUP1 PUSH2 0x410 JUMPI PUSH1 0x40 MLOAD PUSH3 0x461BCD PUSH1 0xE5 SHL DUP2 MSTORE PUSH1 0x20 PUSH1 0x4 DUP3 ADD MSTORE PUSH1 0x14 PUSH1 0x24 DUP3 ADD MSTORE PUSH20 0x14D95B481CD85B191BC8191A5CDC1BDB9A5D995B PUSH1 0x62 SHL PUSH1 0x44 DUP3 ADD MSTORE PUSH1 0x64 ADD PUSH2 0x243 JUMP JUMPDEST PUSH1 0x0 PUSH32 0x0 PUSH1 0x1 PUSH1 0x1 PUSH1 0xA0 SHL SUB AND DUP3 PUSH1 0x40 MLOAD PUSH1 0x0 PUSH1 0x40 MLOAD DUP1 DUP4 SUB DUP2 DUP6 DUP8 GAS CALL SWAP3 POP POP POP RETURNDATASIZE DUP1 PUSH1 0x0 DUP2 EQ PUSH2 0x47D JUMPI PUSH1 0x40 MLOAD SWAP2 POP PUSH1 0x1F NOT PUSH1 0x3F RETURNDATASIZE ADD AND DUP3 ADD PUSH1 0x40 MSTORE RETURNDATASIZE DUP3 MSTORE RETURNDATASIZE PUSH1 0x0 PUSH1 0x20 DUP5 ADD RETURNDATACOPY PUSH2 0x482 JUMP JUMPDEST PUSH1 0x60 SWAP2 POP JUMPDEST POP POP SWAP1 POP DUP1 PUSH2 0x4D3 JUMPI PUSH1 0x40 MLOAD PUSH3 0x461BCD PUSH1 0xE5 SHL DUP2 MSTORE PUSH1 0x20 PUSH1 0x4 DUP3 ADD MSTORE PUSH1 0x17 PUSH1 0x24 DUP3 ADD MSTORE PUSH32 0x46616C6861206E6F20656E76696F206465204574686572000000000000000000 PUSH1 0x44 DUP3 ADD MSTORE PUSH1 0x64 ADD PUSH2 0x243 JUMP JUMPDEST PUSH1 0x40 DUP1 MLOAD DUP4 DUP2 MSTORE TIMESTAMP PUSH1 0x20 DUP3 ADD MSTORE PUSH1 0x1 PUSH1 0x1 PUSH1 0xA0 SHL SUB PUSH32 0x0 AND SWAP2 PUSH32 0xBF13B9D6C1D3E9DA5DC1BF5D3153CCBC8ACB636225E4B56E243259308DA99068 SWAP2 ADD PUSH1 0x40 MLOAD DUP1 SWAP2 SUB SWAP1 LOG2 POP POP JUMP JUMPDEST DUP4 DUP2 MSTORE PUSH1 0x40 PUSH1 0x20 DUP3 ADD MSTORE DUP2 PUSH1 0x40 DUP3 ADD MSTORE DUP2 DUP4 PUSH1 0x60 DUP4 ADD CALLDATACOPY PUSH1 0x0 DUP2 DUP4 ADD PUSH1 0x60 SWAP1 DUP2 ADD SWAP2 SWAP1 SWAP2 MSTORE PUSH1 0x1F SWAP1 SWAP3 ADD PUSH1 0x1F NOT AND ADD ADD SWAP3 SWAP2 POP POP JUMP JUMPDEST PUSH1 0x0 PUSH1 0x20 DUP3 DUP5 SUB SLT ISZERO PUSH2 0x582 JUMPI PUSH1 0x0 DUP1 REVERT JUMPDEST POP CALLDATALOAD SWAP2 SWAP1 POP JUMP JUMPDEST PUSH1 0x20 DUP1 DUP3 MSTORE PUSH1 0x9 SWAP1 DUP3 ADD MSTORE PUSH9 0x2737BA1037BBB732B9 PUSH1 0xB9 SHL PUSH1 0x40 DUP3 ADD MSTORE PUSH1 0x60 ADD SWAP1 JUMP JUMPDEST DUP1 DUP3 ADD DUP1 DUP3 GT ISZERO PUSH2 0x5CD JUMPI PUSH4 0x4E487B71 PUSH1 0xE0 SHL PUSH1 0x0 MSTORE PUSH1 0x11 PUSH1 0x4 MSTORE PUSH1 0x24 PUSH1 0x0 REVERT JUMPDEST SWAP3 SWAP2 POP POP JUMP INVALID LOG2 PUSH5 0x6970667358 0x22 SLT KECCAK256 0xEF 0xE2 0xC6 0xCD 0xB3 CODECOPY 0xA5 0xEF PUSH32 0x9F1FA301A0106F46FF368DAF1B8BFE166F7C6341C0D85D64736F6C6343000811 STOP CALLER "},"methodIdentifiers":{"definirNumero(uint256)":"1b277896","dono()":"70514bea","lerNumero()":"51e44bc1","saldoContrato()":"59f78f16","somarNumero(uint256)":"2ad5af5b","ultimaAlteracao()":"58a52cf4","withdraw()":"3ccfd60b"}}}}}